:02000000C12A13
:06000600000000000800EC
:10000C000F3083120313FC004730FD00FD0B0C284E
:0A001C00FC0B0C2800000000080097
:0E002600213083120313FD00FD0B1728080084
:1000340083160313E51B21288312861323288312B6
:1000440086178316651B2928831206132B2883120F
:1000540006178316E51A3128831286123328831271
:1000640086168316651A3928831206123B288312D2
:10007400061683165B18412883120615432883123B
:1000840006118615032086118316E5194C28831260
:1000940086134E28831286178316651954288312F3
:1000A40006135628831206178316E5185C28831254
:1000B40086125E28831286168316651864288312B6
:1000C400061266288312061683165B186C288312A0
:1000D40006156E28831206118615032086118316D1
:0C00E4005B1C76280620772813200800FB
:1000F00083160313E501E701E8011030E90004303D
:1001000068020318AD28F030831288008030F000B8
:100110007008083E840083166909F00070088000AA
:10012000032003200F3083120805F00070088316A7
:10013000E60070080319A7286708E5006608031998
:10014000A528E60CE613E50A9E280430E800E90D30
:1001500069100430E707E80A7F286508F000080006
:10016000063083120313FD00FD0BB42800000800C5
:10017000CA28803083160313E200DD28C030E20075
:10018000DD289430E200DD28D430E200DD28803024
:10019000E200DD28831603136208013A0319B92827
:1001A0006208023A0319BE286208033A0319C128FB
:1001B0006208043A0319C428C7286303F0006208E0
:1001C000F0077008E2005B147008E5001A2083163F
:0E01D0005B106408E5001A2083165B1408001B
:1001DE0078207008E2000F3083120805F000031932
:0E01EE00FA28B020F22883166208F0000800FC
:1001FC00831603136208831203178D0083168C1366
:0A020C000C1483120C08F000080027
:10021600831603178C1C112900000B29031362088F
:10022600831203178D0083160313630883120317C3
:100236008C0083168C130C150B08F0008B135530AD
:100246008D00AA308D008C14F01B2B298B132C29C2
:060256008B170C110800DB
:10025C00831603135B106208E5001A2083165B14E7
:02026C00080088
:10026E00343083120313FC00F130FD00FD0B3D29E9
:0A027E00FC0B3D2900000000080001
:1002880037218316E201FE20700883160313CB0082
:10029800372101308316E200FE207008831603130D
:1002A800CC00372102308316E200FE207008831646
:1002B8000313CD00372103308316E200FE207008B7
:0A02C80083160313CE00372108004F
:1002D20037218316E2014F08E3000B213721013059
:1002E2008316E2005008E3000B2137210230831607
:1002F200E2005108E3000B21372103308316E200AC
:080302005208E3000B21080082
:10030A0083160313CA01EF207008CA007008031984
:10031A008829B3293130CA00E3293230CA00E329D7
:10032A003330CA00E3293430CA00E3293530CA0021
:10033A00E3293630CA00E3293730CA00E3293830C6
:10034A00CA00E3293930CA00E3292A30CA00E3295E
:10035A003030CA00E3292330CA00E3294A08013AA7
:10036A0003198F294A08023A031992294A08033ABB
:10037A00031995294A08053A031998294A08063A99
:10038A0003199B294A08073A03199E294A08093A78
:10039A000319A1294A080A3A0319A4294A080B3A57
:1003AA000319A7294A080D3A0319AA294A080E3A35
:1003BA000319AD294A080F3A0319B02983122008F4
:1003CA00CF3E840083164A0880000230E20083127E
:1003DA00200A8316E30083122008CF3E8400000817
:1003EA008316E400B8208312A00A0319A10A0800A0
:0E03FA00831603135A088A005908820008006F
:10040800162A803083160313DE00292AC030DE0046
:10041800292A9430DE00292AD430DE00292A8030A7
:10042800DE00292A831603135E08013A0319052AF8
:100438005E08023A03190A2A5E08033A03190D2ACC
:100448005E08043A0319102A132A5F03F0005E08B5
:10045800F0077008DE007008E5001A2083165B10AC
:10046800E10161086007840000080319432A610854
:10047800600784000008E2002E21E10A352A5B1497
:0204880008006A
:10048A00013083160313E5001A2001308316DE00BB
:10049A000130DF002230E00004228312A001A10112
:0E04AA008521852185218521692144210800B5
:1004B8008316031386110611061286120613861375
:1004C8008312861106118613061386120612062059
:1004D8000620062086160616861503208611062095
:1004E800861503208611062086150320861106200E
:1004F800061286150320861106208615032086110C
:10050800861286178615032086110620861306167E
:1005180086150320861106128615032086110620EB
:1005280086150320861106168615032086110620D7
:1005380006128615032086118617061786160616D4
:0E054800861503208611062083165B1408001A
:10055600FD218A110A128000840AD90A0319DA0ACF
:08056600F003031DAB2A08009D
:10056E00803083120313F0007008083E8400FF30C1
:04057E0080000800F1
:10058200A8240730831603139F04850183120514E0
:100592000511B7225C22442183164B08FF3A031D42
:1005A200F72A4C08FF3A031DF72A4D08FF3A031DAC
:1005B200F72A4E08FF3A031DF72AE2013130E30021
:1005C2000B21372101308316E2003230E3000B2188
:1005D200372102308316E2003330E3000B2137214A
:1005E20003308316E2003430E3000B214421013052
:1005F2008316E5001A200C308316E5001A2001301C
:100602008316DE000130DF003130E00004220630C4
:10061200FB001330FC00AD30FD00FD0B0E2BFC0B7C
:100622000E2BFB0B0E2B000000000130E5001A2000
:100632008316DC01DD0109308312EE000030EF0089
:1006420001308316E5001A2002308316DE000330E3
:10065200DF006630E00004228312A001A10185219F
:1006620083164F082A3A031D272C0130E5001A2071
:1006720001308316DE000130DF00BE30E0000422CC
:100682008312A001A1018521852185218521852152
:1006920083164F08323A031D6B2B5008333A031D61
:1006A2006B2B5108343A031D6B2B5208353A031D4C
:1006B2006B2B5308353A031D6B2B8312EE01EF01AE
:1006C2008316DC01DD01852183165408233A031DBC
:1006D2006B2B4522803083165D06F000803070025D
:1006E200031D752B03305C020318E82B4F084B06E1
:1006F200031DE82B50084C06031DE82B51084D063C
:10070200031DE82B52084E06031DE82B5308233A1B
:10071200031DE82B0130E5001A2001308316DE00AC
:100722000130DF005730E0000422DC01DD018312DA
:10073200051005151530FB004B30FC00BE30FD00E6
:10074200FD0BA12BFC0BA12BFB0BA12B0000051118
:100752001F30FB007130FC001E30FD00FD0BAF2B83
:10076200FC0BAF2BFB0BAF2B000001308316E50017
:100772001A2001308316DE000130DF004730E0002E
:1007820004228312A001A101852183164F082A3A6F
:10079200031DCE2B8312C501C6018312003046060B
:1007A200031DD52B00304506031DB62B051515304C
:1007B200FB004B30FC00BE30FD00FD0BDE2BFC0BC2
:1007C200DE2BFB0BDE2B000005110514102C83120F
:1007D20000306F06031DEF2B00306E060319102C3C
:1007E2008316DC0A0319DD0A0130E5001A20013004
:1007F2008316DE000130DF00AF30E00004228312F6
:1008020005151530FB004B30FC00BE30FD00FD0B22
:10081200082CFC0B082CFB0B082C00000511803067
:1008220083165D06F00080307002031D1A2C03301F
:100832005C02031C272C83160230DE000130DF002D
:10084200A030E0000422831205151C2C1C2B282C3E
:1009500020308400463083120313F0002E308316BB
:10096000D9000430DA00AB22A03084002A30831290
:100970000313F00074308316D9000430DA00AB2280
:10098000663084000A3083120313F0009E30831611
:0A099000D9000430DA00AB220800A1
:04085C000034003430
:1008600045346E3474346534723420344E34653417
:0E0870007734203443346F34643465340034FC
:10087E0049346E3469347434693461346C34693497
:10088E007A3469346E3467342E342E342E342E344A
:08089E002E342E340034003426
:0408A60003340034E3
:1008AA005034723465347334733420342A34203427
:1008BA0074346F3420346C346F3463346B340034E2
:1008CA0041346334633465347334733420344734C5
:0E08DA00723461346E34743465346434003426
:1008E80052344F344234423445345234593420342B
:0E08F80041344C34453452345434003400340E
:10090600413463346334653473347334203444348B
:0E09160065346E346934653464340034003462
:1009240045346E34743465347234203443346F3453
:08093400643465340034003422
:10093C005034723465347334733420342A340034B4
:04094C000934003436
:02400E004A2F37
:00000001FF
